{
  "contractName": "Voting",
  "abi": [
    {
      "inputs": [],
      "stateMutability": "nonpayable",
      "type": "constructor"
    },
    {
      "inputs": [
        {
          "internalType": "address",
          "name": "",
          "type": "address"
        }
      ],
      "name": "hasVoted",
      "outputs": [
        {
          "internalType": "bool",
          "name": "",
          "type": "bool"
        }
      ],
      "stateMutability": "view",
      "type": "function",
      "constant": true
    },
    {
      "inputs": [],
      "name": "owner",
      "outputs": [
        {
          "internalType": "address",
          "name": "",
          "type": "address"
        }
      ],
      "stateMutability": "view",
      "type": "function",
      "constant": true
    },
    {
      "inputs": [
        {
          "internalType": "string",
          "name": "",
          "type": "string"
        }
      ],
      "name": "votes",
      "outputs": [
        {
          "internalType": "uint256",
          "name": "",
          "type": "uint256"
        }
      ],
      "stateMutability": "view",
      "type": "function",
      "constant": true
    },
    {
      "inputs": [
        {
          "internalType": "string",
          "name": "candidate",
          "type": "string"
        }
      ],
      "name": "vote",
      "outputs": [],
      "stateMutability": "nonpayable",
      "type": "function"
    },
    {
      "inputs": [
        {
          "internalType": "string",
          "name": "candidate",
          "type": "string"
        }
      ],
      "name": "getVotes",
      "outputs": [
        {
          "internalType": "uint256",
          "name": "",
          "type": "uint256"
        }
      ],
      "stateMutability": "view",
      "type": "function",
      "constant": true
    }
  ],
  "bytecode": "0x608060405234801561001057600080fd5b50336000806101000a81548173ffffffffffffffffffffffffffffffffffffffff021916908373ffffffffffffffffffffffffffffffffffffffff160217905550610750806100606000396000f3fe608060405234801561001057600080fd5b50600436106100575760003560e01c806309eef43e1461005c578063805265e51461008c5780638da5cb5b146100bc578063b99ef1fa146100da578063fc36e15b1461010a575b600080fd5b6100766004803603810190610071919061034e565b610126565b6040516100839190610396565b60405180910390f35b6100a660048036038101906100a191906104f7565b610146565b6040516100b39190610559565b60405180910390f35b6100c461016e565b6040516100d19190610583565b60405180910390f35b6100f460048036038101906100ef91906104f7565b610192565b6040516101019190610559565b60405180910390f35b610124600480360381019061011f91906104f7565b6101c0565b005b60026020528060005260406000206000915054906101000a900460ff1681565b6000600182604051610158919061060f565b9081526020016040518091039020549050919050565b60008054906101000a900473ffffffffffffffffffffffffffffffffffffffff1681565b6001818051602081018201805184825260208301602085012081835280955050505050506000915090505481565b600260003373ffffffffffffffffffffffffffffffffffffffff1673ffffffffffffffffffffffffffffffffffffffff16815260200190815260200160002060009054906101000a900460ff161561024d576040517f08c379a000000000000000000000000000000000000000000000000000000000815260040161024490610683565b60405180910390fd5b60018160405161025d919061060f565b9081526020016040518091039020600081548092919061027c906106d2565b91905055506001600260003373ffffffffffffffffffffffffffffffffffffffff1673ffffffffffffffffffffffffffffffffffffffff16815260200190815260200160002060006101000a81548160ff02191690831515021790555050565b6000604051905090565b600080fd5b600080fd5b600073ffffffffffffffffffffffffffffffffffffffff82169050919050565b600061031b826102f0565b9050919050565b61032b81610310565b811461033657600080fd5b50565b60008135905061034881610322565b92915050565b600060208284031215610364576103636102e6565b5b600061037284828501610339565b91505092915050565b60008115159050919050565b6103908161037b565b82525050565b60006020820190506103ab6000830184610387565b92915050565b600080fd5b600080fd5b6000601f19601f8301169050919050565b7f4e487b7100000000000000000000000000000000000000000000000000000000600052604160045260246000fd5b610404826103bb565b810181811067ffffffffffffffff82111715610423576104226103cc565b5b80604052505050565b60006104366102dc565b905061044282826103fb565b919050565b600067ffffffffffffffff821115610462576104616103cc565b5b61046b826103bb565b9050602081019050919050565b82818337600083830152505050565b600061049a61049584610447565b61042c565b9050828152602081018484840111156104b6576104b56103b6565b5b6104c1848285610478565b509392505050565b600082601f8301126104de576104dd6103b1565b5b81356104ee848260208601610487565b91505092915050565b60006020828403121561050d5761050c6102e6565b5b600082013567ffffffffffffffff81111561052b5761052a6102eb565b5b610537848285016104c9565b91505092915050565b6000819050919050565b61055381610540565b82525050565b600060208201905061056e600083018461054a565b92915050565b61057d81610310565b82525050565b60006020820190506105986000830184610574565b92915050565b600081519050919050565b600081905092915050565b60005b838110156105d25780820151818401526020810190506105b7565b60008484015250505050565b60006105e98261059e565b6105f381856105a9565b93506106038185602086016105b4565b80840191505092915050565b600061061b82846105de565b915081905092915050565b600082825260208201905092915050565b7f596f75206861766520616c726561647920766f74656421000000000000000000600082015250565b600061066d601783610626565b915061067882610637565b602082019050919050565b6000602082019050818103600083015261069c81610660565b9050919050565b7f4e487b7100000000000000000000000000000000000000000000000000000000600052601160045260246000fd5b60006106dd82610540565b91507fffffffffffffffffffffffffffffffffffffffffffffffffffffffffffffffff820361070f5761070e6106a3565b5b60018201905091905056fea2646970667358221220a4fb7ffff92c00dbee0a5277d4ef4be852f8bbc04d9c459768674ec4363a3c1564736f6c63430008110033",
  "immutableReferences": {},
  "source": "// SPDX-License-Identifier: MIT\r\npragma solidity ^0.8.0;\r\n\r\ncontract Voting {\r\n    address public owner;\r\n    mapping(string => uint256) public votes;  // Mapping to store the number of votes for each candidate\r\n    mapping(address => bool) public hasVoted; // Mapping to track if an address has already voted\r\n\r\n    // Constructor to set the contract deployer as the owner\r\n    constructor() {\r\n        owner = msg.sender;\r\n    }\r\n\r\n    // Function to vote for a candidate\r\n    function vote(string memory candidate) public {\r\n        require(!hasVoted[msg.sender], \"You have already voted!\");\r\n\r\n        votes[candidate]++;\r\n\r\n        hasVoted[msg.sender] = true;\r\n    }\r\n\r\n    // Function to get the total votes of a candidate\r\n    function getVotes(string memory candidate) public view returns (uint256) {\r\n        return votes[candidate];\r\n    }\r\n}",
  "sourcePath": "C:\\testing\\VotingEVM\\contracts\\Voting.sol",
  "compiler": {
    "name": "solc",
    "version": "0.8.17+commit.8df45f5f.Emscripten.clang"
  },
  "schemaVersion": "3.4.16",
  "updatedAt": "2025-11-06T04:14:55.844Z",
  "networkType": "ethereum",
  "devdoc": {
    "kind": "dev",
    "methods": {},
    "version": 1
  },
  "userdoc": {
    "kind": "user",
    "methods": {},
    "version": 1
  }
}